{
  "contractName": "Voting",
  "abi": [
    {
      "inputs": [],
      "stateMutability": "nonpayable",
      "type": "constructor"
    },
    {
      "inputs": [
        {
          "internalType": "uint256",
          "name": "phoneNo",
          "type": "uint256"
        }
      ],
      "name": "isUser",
      "outputs": [
        {
          "internalType": "bool",
          "name": "",
          "type": "bool"
        }
      ],
      "stateMutability": "nonpayable",
      "type": "function"
    },
    {
      "inputs": [
        {
          "internalType": "uint256",
          "name": "phoneNo",
          "type": "uint256"
        },
        {
          "internalType": "string",
          "name": "name",
          "type": "string"
        },
        {
          "internalType": "string",
          "name": "email",
          "type": "string"
        }
      ],
      "name": "addUser",
      "outputs": [
        {
          "internalType": "bool",
          "name": "exisiting",
          "type": "bool"
        }
      ],
      "stateMutability": "nonpayable",
      "type": "function"
    },
    {
      "inputs": [
        {
          "internalType": "uint256",
          "name": "phoneNo",
          "type": "uint256"
        }
      ],
      "name": "getUser",
      "outputs": [
        {
          "components": [
            {
              "internalType": "string",
              "name": "name",
              "type": "string"
            },
            {
              "internalType": "string",
              "name": "email",
              "type": "string"
            },
            {
              "internalType": "uint256",
              "name": "index",
              "type": "uint256"
            }
          ],
          "internalType": "struct Voting.user",
          "name": "",
          "type": "tuple"
        }
      ],
      "stateMutability": "view",
      "type": "function",
      "constant": true
    },
    {
      "inputs": [
        {
          "internalType": "string",
          "name": "name",
          "type": "string"
        },
        {
          "internalType": "uint256",
          "name": "phoneNo",
          "type": "uint256"
        },
        {
          "components": [
            {
              "internalType": "uint256",
              "name": "candidateId",
              "type": "uint256"
            },
            {
              "internalType": "string",
              "name": "name",
              "type": "string"
            },
            {
              "internalType": "uint256",
              "name": "voteCount",
              "type": "uint256"
            }
          ],
          "internalType": "struct Voting.candidate[]",
          "name": "candidateList",
          "type": "tuple[]"
        },
        {
          "internalType": "uint256",
          "name": "startTime",
          "type": "uint256"
        },
        {
          "internalType": "uint256",
          "name": "endTime",
          "type": "uint256"
        }
      ],
      "name": "addPoll",
      "outputs": [
        {
          "internalType": "bool",
          "name": "success",
          "type": "bool"
        }
      ],
      "stateMutability": "nonpayable",
      "type": "function"
    },
    {
      "inputs": [
        {
          "internalType": "uint256",
          "name": "phoneNo",
          "type": "uint256"
        }
      ],
      "name": "getPolls",
      "outputs": [
        {
          "components": [
            {
              "internalType": "uint256",
              "name": "id",
              "type": "uint256"
            },
            {
              "internalType": "string",
              "name": "name",
              "type": "string"
            },
            {
              "internalType": "uint256",
              "name": "creatorUserId",
              "type": "uint256"
            },
            {
              "components": [
                {
                  "internalType": "uint256",
                  "name": "candidateId",
                  "type": "uint256"
                },
                {
                  "internalType": "string",
                  "name": "name",
                  "type": "string"
                },
                {
                  "internalType": "uint256",
                  "name": "voteCount",
                  "type": "uint256"
                }
              ],
              "internalType": "struct Voting.candidate[]",
              "name": "candidateList",
              "type": "tuple[]"
            },
            {
              "internalType": "uint256",
              "name": "startTime",
              "type": "uint256"
            },
            {
              "internalType": "uint256",
              "name": "endTime",
              "type": "uint256"
            },
            {
              "internalType": "uint256",
              "name": "winner",
              "type": "uint256"
            }
          ],
          "internalType": "struct Voting.poll[]",
          "name": "",
          "type": "tuple[]"
        }
      ],
      "stateMutability": "nonpayable",
      "type": "function"
    },
    {
      "inputs": [
        {
          "internalType": "uint256",
          "name": "phoneNo",
          "type": "uint256"
        },
        {
          "internalType": "uint256",
          "name": "pollId",
          "type": "uint256"
        }
      ],
      "name": "joinPoll",
      "outputs": [],
      "stateMutability": "nonpayable",
      "type": "function"
    },
    {
      "inputs": [
        {
          "internalType": "uint256",
          "name": "pollId",
          "type": "uint256"
        },
        {
          "internalType": "uint256",
          "name": "candidateId",
          "type": "uint256"
        }
      ],
      "name": "vote",
      "outputs": [
        {
          "internalType": "bool",
          "name": "",
          "type": "bool"
        }
      ],
      "stateMutability": "nonpayable",
      "type": "function"
    }
  ],
  "bytecode": "0x608060405234801561001057600080fd5b506000600281905550611504806100286000396000f3fe608060405234801561001057600080fd5b506004361061007d5760003560e01c8063531d37a71161005b578063531d37a7146100fe578063b0467deb1461012e578063b384abef1461015e578063ce2dee051461018e5761007d565b80630b787b9b1461008257806318a9cc1b1461009e578063255f4e41146100ce575b600080fd5b61009c60048036038101906100979190610e53565b6101be565b005b6100b860048036038101906100b39190610dab565b610242565b6040516100c59190611164565b60405180910390f35b6100e860048036038101906100e39190610d04565b6102bf565b6040516100f59190611164565b60405180910390f35b61011860048036038101906101139190610dd4565b610460565b6040516101259190611164565b60405180910390f35b61014860048036038101906101439190610dab565b610557565b604051610155919061117f565b60405180910390f35b61017860048036038101906101739190610e53565b6106b2565b6040516101859190611164565b60405180910390f35b6101a860048036038101906101a39190610dab565b610735565b6040516101b59190611142565b60405180910390f35b6004600083815260200190815260200160002060405180604001604052808381526020016000151581525090806001815401808255809150506001900390600052602060002090600202016000909190919091506000820151816000015560208201518160010160006101000a81548160ff02191690831515021790555050505050565b600080600080549050141561025a57600090506102ba565b8160006001600085815260200190815260200160002060020154815481106102ab577f4e487b7100000000000000000000000000000000000000000000000000000000600052603260045260246000fd5b90600052602060002001541490505b919050565b60006002546003600060025481526020019081526020016000206000018190555085600360006002548152602001908152602001600020600101908051906020019061030c929190610a87565b50846003600060025481526020019081526020016000206002018190555060005b84518110156103fe57600360006002548152602001908152602001600020600301858281518110610387577f4e487b7100000000000000000000000000000000000000000000000000000000600052603260045260246000fd5b602002602001015190806001815401808255809150506001900390600052602060002090600302016000909190919091506000820151816000015560208201518160010190805190602001906103de929190610a87565b5060408201518160020155505080806103f6906113d0565b91505061032d565b508260036000600254815260200190815260200160002060040181905550816003600060025481526020019081526020016000206005018190555060016002600082825461044c91906112bc565b925050819055506001905095945050505050565b60006001151561046f85610242565b151514156104805760009050610550565b604051806060016040528084815260200183815260200160008152506001600086815260200190815260200160002060008201518160000190805190602001906104cb929190610a87565b5060208201518160010190805190602001906104e8929190610a87565b5060408201518160020155905050600084908060018154018082558091505060019003906000526020600020016000909190919091505560016000805490506105319190611312565b6001600086815260200190815260200160002060020181905550600190505b9392505050565b61055f610b0d565b6001600083815260200190815260200160002060405180606001604052908160008201805461058d9061139e565b80601f01602080910402602001604051908101604052809291908181526020018280546105b99061139e565b80156106065780601f106105db57610100808354040283529160200191610606565b820191906000526020600020905b8154815290600101906020018083116105e957829003601f168201915b5050505050815260200160018201805461061f9061139e565b80601f016020809104026020016040519081016040528092919081815260200182805461064b9061139e565b80156106985780601f1061066d57610100808354040283529160200191610698565b820191906000526020600020905b81548152906001019060200180831161067b57829003601f168201915b505050505081526020016002820154815250509050919050565b60006001600360008581526020019081526020016000206003018381548110610704577f4e487b7100000000000000000000000000000000000000000000000000000000600052603260045260246000fd5b9060005260206000209060030201600201600082825461072491906112bc565b925050819055506001905092915050565b60606000805b60025481101561078557836003600083815260200190815260200160002060020154141561077257818061076e906113d0565b9250505b808061077d906113d0565b91505061073b565b5060008167ffffffffffffffff8111156107c8577f4e487b7100000000000000000000000000000000000000000000000000000000600052604160045260246000fd5b60405190808252806020026020018201604052801561080157816020015b6107ee610b2e565b8152602001906001900390816107e65790505b5090506000805b600254811015610a7b578560036000838152602001908152602001600020600201541415610a6857600360008281526020019081526020016000206040518060e0016040529081600082015481526020016001820180546108689061139e565b80601f01602080910402602001604051908101604052809291908181526020018280546108949061139e565b80156108e15780601f106108b6576101008083540402835291602001916108e1565b820191906000526020600020905b8154815290600101906020018083116108c457829003601f168201915b505050505081526020016002820154815260200160038201805480602002602001604051908101604052809291908181526020016000905b828210156109f15783829060005260206000209060030201604051806060016040529081600082015481526020016001820180546109569061139e565b80601f01602080910402602001604051908101604052809291908181526020018280546109829061139e565b80156109cf5780601f106109a4576101008083540402835291602001916109cf565b820191906000526020600020905b8154815290600101906020018083116109b257829003601f168201915b5050505050815260200160028201548152505081526020019060010190610919565b5050505081526020016004820154815260200160058201548152602001600682015481525050838380610a23906113d0565b945081518110610a5c577f4e487b7100000000000000000000000000000000000000000000000000000000600052603260045260246000fd5b60200260200101819052505b8080610a73906113d0565b915050610808565b50819350505050919050565b828054610a939061139e565b90600052602060002090601f016020900481019282610ab55760008555610afc565b82601f10610ace57805160ff1916838001178555610afc565b82800160010185558215610afc579182015b82811115610afb578251825591602001919060010190610ae0565b5b509050610b099190610b6b565b5090565b60405180606001604052806060815260200160608152602001600081525090565b6040518060e00160405280600081526020016060815260200160008152602001606081526020016000815260200160008152602001600081525090565b5b80821115610b84576000816000905550600101610b6c565b5090565b6000610b9b610b96846111d2565b6111a1565b9050808382526020820190508260005b85811015610bdb5781358501610bc18882610c77565b845260208401935060208301925050600181019050610bab565b5050509392505050565b6000610bf8610bf3846111fe565b6111a1565b905082815260208101848484011115610c1057600080fd5b610c1b84828561135c565b509392505050565b600082601f830112610c3457600080fd5b8135610c44848260208601610b88565b91505092915050565b600082601f830112610c5e57600080fd5b8135610c6e848260208601610be5565b91505092915050565b600060608284031215610c8957600080fd5b610c9360606111a1565b90506000610ca384828501610cef565b600083015250602082013567ffffffffffffffff811115610cc357600080fd5b610ccf84828501610c4d565b6020830152506040610ce384828501610cef565b60408301525092915050565b600081359050610cfe816114b7565b92915050565b600080600080600060a08688031215610d1c57600080fd5b600086013567ffffffffffffffff811115610d3657600080fd5b610d4288828901610c4d565b9550506020610d5388828901610cef565b945050604086013567ffffffffffffffff811115610d7057600080fd5b610d7c88828901610c23565b9350506060610d8d88828901610cef565b9250506080610d9e88828901610cef565b9150509295509295909350565b600060208284031215610dbd57600080fd5b6000610dcb84828501610cef565b91505092915050565b600080600060608486031215610de957600080fd5b6000610df786828701610cef565b935050602084013567ffffffffffffffff811115610e1457600080fd5b610e2086828701610c4d565b925050604084013567ffffffffffffffff811115610e3d57600080fd5b610e4986828701610c4d565b9150509250925092565b60008060408385031215610e6657600080fd5b6000610e7485828601610cef565b9250506020610e8585828601610cef565b9150509250929050565b6000610e9b8383610fe9565b905092915050565b6000610eaf8383611039565b905092915050565b6000610ec28261124e565b610ecc8185611289565b935083602082028501610ede8561122e565b8060005b85811015610f1a5784840389528151610efb8582610e8f565b9450610f068361126f565b925060208a01995050600181019050610ee2565b50829750879550505050505092915050565b6000610f3782611259565b610f41818561129a565b935083602082028501610f538561123e565b8060005b85811015610f8f5784840389528151610f708582610ea3565b9450610f7b8361127c565b925060208a01995050600181019050610f57565b50829750879550505050505092915050565b610faa81611346565b82525050565b6000610fbb82611264565b610fc581856112ab565b9350610fd581856020860161136b565b610fde816114a6565b840191505092915050565b60006060830160008301516110016000860182611133565b50602083015184820360208601526110198282610fb0565b915050604083015161102e6040860182611133565b508091505092915050565b600060e0830160008301516110516000860182611133565b50602083015184820360208601526110698282610fb0565b915050604083015161107e6040860182611133565b50606083015184820360608601526110968282610eb7565b91505060808301516110ab6080860182611133565b5060a08301516110be60a0860182611133565b5060c08301516110d160c0860182611133565b508091505092915050565b600060608301600083015184820360008601526110f98282610fb0565b915050602083015184820360208601526111138282610fb0565b91505060408301516111286040860182611133565b508091505092915050565b61113c81611352565b82525050565b6000602082019050818103600083015261115c8184610f2c565b905092915050565b60006020820190506111796000830184610fa1565b92915050565b6000602082019050818103600083015261119981846110dc565b905092915050565b6000604051905081810181811067ffffffffffffffff821117156111c8576111c7611477565b5b8060405250919050565b600067ffffffffffffffff8211156111ed576111ec611477565b5b602082029050602081019050919050565b600067ffffffffffffffff82111561121957611218611477565b5b601f19601f8301169050602081019050919050565b6000819050602082019050919050565b6000819050602082019050919050565b600081519050919050565b600081519050919050565b600081519050919050565b6000602082019050919050565b6000602082019050919050565b600082825260208201905092915050565b600082825260208201905092915050565b600082825260208201905092915050565b60006112c782611352565b91506112d283611352565b9250827fffffffffffffffffffffffffffffffffffffffffffffffffffffffffffffffff0382111561130757611306611419565b5b828201905092915050565b600061131d82611352565b915061132883611352565b92508282101561133b5761133a611419565b5b828203905092915050565b60008115159050919050565b6000819050919050565b82818337600083830152505050565b60005b8381101561138957808201518184015260208101905061136e565b83811115611398576000848401525b50505050565b600060028204905060018216806113b657607f821691505b602082108114156113ca576113c9611448565b5b50919050565b60006113db82611352565b91507fffffffffffffffffffffffffffffffffffffffffffffffffffffffffffffffff82141561140e5761140d611419565b5b600182019050919050565b7f4e487b7100000000000000000000000000000000000000000000000000000000600052601160045260246000fd5b7f4e487b7100000000000000000000000000000000000000000000000000000000600052602260045260246000fd5b7f4e487b7100000000000000000000000000000000000000000000000000000000600052604160045260246000fd5b6000601f19601f8301169050919050565b6114c081611352565b81146114cb57600080fd5b5056fea264697066735822122065134f4af122ec7c4a158d167ca6a2dafa693262b165e900cd7f3bc113de76d164736f6c63430008000033",
  "immutableReferences": {},
  "source": "pragma solidity ^0.8.0;\n\ncontract Voting {\n    //users details\n    struct user {\n        string name;\n        string email;\n        uint256 index;\n    }\n\n    uint256[] private userIndex;\n\n    mapping(uint256 => user) userList;\n\n    function isUser(uint256 phoneNo) public returns (bool) {\n        if (userIndex.length == 0) return false;\n        return (userIndex[userList[phoneNo].index] == phoneNo);\n    }\n\n    function addUser(\n        uint256 phoneNo,\n        string memory name,\n        string memory email\n    ) public returns (bool exisiting) {\n        if (isUser(phoneNo) == true) return false;\n        userList[phoneNo] = user(name, email, 0);\n        userIndex.push(phoneNo);\n        userList[phoneNo].index = userIndex.length - 1;\n        return true;\n    }\n\n    function getUser(uint256 phoneNo) public view returns (user memory) {\n        return userList[phoneNo];\n    }\n\n    // Candidate\n    struct candidate {\n        uint256 candidateId;\n        string name;\n        uint256 voteCount;\n    }\n\n    // Polls\n    struct poll {\n        uint256 id;\n        string name;\n        uint256 creatorUserId;\n        candidate[] candidateList;\n        uint256 startTime;\n        uint256 endTime;\n        uint256 winner;\n    }\n\n    // To generate a poll id\n    uint256 numberOfPolls;\n\n    constructor() public {\n        numberOfPolls = 0;\n    }\n\n    mapping(uint256 => poll) pollList;\n\n    // Create poll function\n    function addPoll(\n        string memory name,\n        uint256 phoneNo,\n        candidate[] memory candidateList,\n        uint256 startTime,\n        uint256 endTime\n    ) public returns (bool success) {\n        pollList[numberOfPolls].id = numberOfPolls;\n        pollList[numberOfPolls].name = name;\n        pollList[numberOfPolls].creatorUserId = phoneNo;\n        for (uint256 i = 0; i < candidateList.length; i++)\n            pollList[numberOfPolls].candidateList.push(candidateList[i]);\n\n        pollList[numberOfPolls].startTime = startTime;\n        pollList[numberOfPolls].endTime = endTime;\n\n        numberOfPolls += 1;\n        return true;\n    }\n\n    // Get polls created by this user\n    function getPolls(uint256 phoneNo) public returns (poll[] memory) {\n        uint256 count = 0;\n        for (uint256 x = 0; x < numberOfPolls; x++) {\n            if (pollList[x].creatorUserId == phoneNo) count++;\n        }\n\n        poll[] memory userPollList = new poll[](count);\n        uint256 temp = 0;\n        for (uint256 x = 0; x < numberOfPolls; x++) {\n            if (pollList[x].creatorUserId == phoneNo)\n                userPollList[temp++] = pollList[x];\n        }\n\n        return userPollList;\n    }\n\n    //Joined polls\n    struct pollVoted {\n        uint256 pollId;\n        bool voted;\n    }\n\n    mapping(uint256 => pollVoted[]) joinedPolls;\n\n    function joinPoll(uint256 phoneNo, uint256 pollId) public {\n        joinedPolls[phoneNo].push(pollVoted(pollId, false));\n    }\n\n    // function joinedPollsList(uint, phoneNo) public returns (){\n\n    // }\n\n    function vote(uint256 pollId, uint256 candidateId) public returns (bool) {\n        pollList[pollId].candidateList[candidateId].voteCount += 1;\n        return true;\n    }\n}\n",
  "sourcePath": "/Users/tarun/Documents/GitHub/vote-io/backend/backend-api/contracts/Voting.sol",
  "compiler": {
    "name": "solc",
    "version": "0.8.0+commit.c7dfd78e.Emscripten.clang"
  },
  "schemaVersion": "3.4.7",
  "updatedAt": "2022-06-13T15:06:53.583Z",
  "networkType": "ethereum",
  "devdoc": {
    "kind": "dev",
    "methods": {},
    "version": 1
  },
  "userdoc": {
    "kind": "user",
    "methods": {},
    "version": 1
  }
}