{
  "contractName": "Voting",
  "abi": [
    {
      "inputs": [],
      "stateMutability": "nonpayable",
      "type": "constructor"
    },
    {
      "inputs": [
        {
          "internalType": "uint256",
          "name": "phoneNo",
          "type": "uint256"
        }
      ],
      "name": "isUser",
      "outputs": [
        {
          "internalType": "bool",
          "name": "",
          "type": "bool"
        }
      ],
      "stateMutability": "nonpayable",
      "type": "function"
    },
    {
      "inputs": [
        {
          "internalType": "uint256",
          "name": "phoneNo",
          "type": "uint256"
        },
        {
          "internalType": "string",
          "name": "name",
          "type": "string"
        },
        {
          "internalType": "string",
          "name": "email",
          "type": "string"
        }
      ],
      "name": "addUser",
      "outputs": [
        {
          "internalType": "bool",
          "name": "exisiting",
          "type": "bool"
        }
      ],
      "stateMutability": "nonpayable",
      "type": "function"
    },
    {
      "inputs": [
        {
          "internalType": "uint256",
          "name": "phoneNo",
          "type": "uint256"
        }
      ],
      "name": "getUser",
      "outputs": [
        {
          "components": [
            {
              "internalType": "string",
              "name": "name",
              "type": "string"
            },
            {
              "internalType": "string",
              "name": "email",
              "type": "string"
            },
            {
              "internalType": "uint256",
              "name": "index",
              "type": "uint256"
            }
          ],
          "internalType": "struct Voting.user",
          "name": "",
          "type": "tuple"
        }
      ],
      "stateMutability": "view",
      "type": "function",
      "constant": true
    },
    {
      "inputs": [
        {
          "internalType": "string",
          "name": "name",
          "type": "string"
        },
        {
          "internalType": "uint256",
          "name": "phoneNo",
          "type": "uint256"
        },
        {
          "components": [
            {
              "internalType": "uint256",
              "name": "candidateId",
              "type": "uint256"
            },
            {
              "internalType": "string",
              "name": "name",
              "type": "string"
            },
            {
              "internalType": "string",
              "name": "desc",
              "type": "string"
            },
            {
              "internalType": "uint256",
              "name": "voteCount",
              "type": "uint256"
            },
            {
              "internalType": "string",
              "name": "picture",
              "type": "string"
            }
          ],
          "internalType": "struct Voting.candidate[]",
          "name": "candidateList",
          "type": "tuple[]"
        },
        {
          "internalType": "uint256",
          "name": "startTime",
          "type": "uint256"
        },
        {
          "internalType": "uint256",
          "name": "endTime",
          "type": "uint256"
        }
      ],
      "name": "addPoll",
      "outputs": [
        {
          "internalType": "bool",
          "name": "success",
          "type": "bool"
        }
      ],
      "stateMutability": "nonpayable",
      "type": "function"
    },
    {
      "inputs": [
        {
          "internalType": "uint256",
          "name": "phoneNo",
          "type": "uint256"
        }
      ],
      "name": "getPolls",
      "outputs": [
        {
          "components": [
            {
              "internalType": "uint256",
              "name": "id",
              "type": "uint256"
            },
            {
              "internalType": "string",
              "name": "name",
              "type": "string"
            },
            {
              "internalType": "uint256",
              "name": "creatorUserId",
              "type": "uint256"
            },
            {
              "components": [
                {
                  "internalType": "uint256",
                  "name": "candidateId",
                  "type": "uint256"
                },
                {
                  "internalType": "string",
                  "name": "name",
                  "type": "string"
                },
                {
                  "internalType": "string",
                  "name": "desc",
                  "type": "string"
                },
                {
                  "internalType": "uint256",
                  "name": "voteCount",
                  "type": "uint256"
                },
                {
                  "internalType": "string",
                  "name": "picture",
                  "type": "string"
                }
              ],
              "internalType": "struct Voting.candidate[]",
              "name": "candidateList",
              "type": "tuple[]"
            },
            {
              "internalType": "uint256",
              "name": "startTime",
              "type": "uint256"
            },
            {
              "internalType": "uint256",
              "name": "endTime",
              "type": "uint256"
            },
            {
              "internalType": "uint256",
              "name": "winner",
              "type": "uint256"
            }
          ],
          "internalType": "struct Voting.poll[]",
          "name": "",
          "type": "tuple[]"
        }
      ],
      "stateMutability": "nonpayable",
      "type": "function"
    },
    {
      "inputs": [
        {
          "internalType": "uint256",
          "name": "phoneNo",
          "type": "uint256"
        },
        {
          "internalType": "uint256",
          "name": "pollId",
          "type": "uint256"
        }
      ],
      "name": "joinPoll",
      "outputs": [],
      "stateMutability": "nonpayable",
      "type": "function"
    },
    {
      "inputs": [
        {
          "internalType": "uint256",
          "name": "pollId",
          "type": "uint256"
        },
        {
          "internalType": "uint256",
          "name": "candidateId",
          "type": "uint256"
        }
      ],
      "name": "vote",
      "outputs": [
        {
          "internalType": "bool",
          "name": "",
          "type": "bool"
        }
      ],
      "stateMutability": "nonpayable",
      "type": "function"
    }
  ],
  "bytecode": "0x608060405234801561001057600080fd5b5060006002819055506116ee806100286000396000f3fe608060405234801561001057600080fd5b506004361061007d5760003560e01c806384f3bcb61161005b57806384f3bcb6146100fe578063b0467deb1461012e578063b384abef1461015e578063ce2dee051461018e5761007d565b80630b787b9b1461008257806318a9cc1b1461009e578063531d37a7146100ce575b600080fd5b61009c60048036038101906100979190611009565b6101be565b005b6100b860048036038101906100b39190610f61565b610242565b6040516100c5919061134e565b60405180910390f35b6100e860048036038101906100e39190610f8a565b6102bf565b6040516100f5919061134e565b60405180910390f35b61011860048036038101906101139190610eba565b6103b6565b604051610125919061134e565b60405180910390f35b61014860048036038101906101439190610f61565b610591565b6040516101559190611369565b60405180910390f35b61017860048036038101906101739190611009565b6106ec565b604051610185919061134e565b60405180910390f35b6101a860048036038101906101a39190610f61565b61076f565b6040516101b5919061132c565b60405180910390f35b6004600083815260200190815260200160002060405180604001604052808381526020016000151581525090806001815401808255809150506001900390600052602060002090600202016000909190919091506000820151816000015560208201518160010160006101000a81548160ff02191690831515021790555050505050565b600080600080549050141561025a57600090506102ba565b8160006001600085815260200190815260200160002060020154815481106102ab577f4e487b7100000000000000000000000000000000000000000000000000000000600052603260045260246000fd5b90600052602060002001541490505b919050565b6000600115156102ce85610242565b151514156102df57600090506103af565b6040518060600160405280848152602001838152602001600081525060016000868152602001908152602001600020600082015181600001908051906020019061032a929190610be5565b506020820151816001019080519060200190610347929190610be5565b50604082015181600201559050506000849080600181540180825580915050600190039060005260206000200160009091909190915055600160008054905061039091906114fc565b6001600086815260200190815260200160002060020181905550600190505b9392505050565b600060025460036000600254815260200190815260200160002060000181905550856003600060025481526020019081526020016000206001019080519060200190610403929190610be5565b50846003600060025481526020019081526020016000206002018190555060005b845181101561052f5760036000600254815260200190815260200160002060030185828151811061047e577f4e487b7100000000000000000000000000000000000000000000000000000000600052603260045260246000fd5b602002602001015190806001815401808255809150506001900390600052602060002090600502016000909190919091506000820151816000015560208201518160010190805190602001906104d5929190610be5565b5060408201518160020190805190602001906104f2929190610be5565b50606082015181600301556080820151816004019080519060200190610519929190610be5565b5050508080610527906115ba565b915050610424565b508260036000600254815260200190815260200160002060040181905550816003600060025481526020019081526020016000206005018190555060016002600082825461057d91906114a6565b925050819055506001905095945050505050565b610599610c6b565b600160008381526020019081526020016000206040518060600160405290816000820180546105c790611588565b80601f01602080910402602001604051908101604052809291908181526020018280546105f390611588565b80156106405780601f1061061557610100808354040283529160200191610640565b820191906000526020600020905b81548152906001019060200180831161062357829003601f168201915b5050505050815260200160018201805461065990611588565b80601f016020809104026020016040519081016040528092919081815260200182805461068590611588565b80156106d25780601f106106a7576101008083540402835291602001916106d2565b820191906000526020600020905b8154815290600101906020018083116106b557829003601f168201915b505050505081526020016002820154815250509050919050565b6000600160036000858152602001908152602001600020600301838154811061073e577f4e487b7100000000000000000000000000000000000000000000000000000000600052603260045260246000fd5b9060005260206000209060050201600301600082825461075e91906114a6565b925050819055506001905092915050565b60606000805b6002548110156107bf5783600360008381526020019081526020016000206002015414156107ac5781806107a8906115ba565b9250505b80806107b7906115ba565b915050610775565b5060008167ffffffffffffffff811115610802577f4e487b7100000000000000000000000000000000000000000000000000000000600052604160045260246000fd5b60405190808252806020026020018201604052801561083b57816020015b610828610c8c565b8152602001906001900390816108205790505b5090506000805b600254811015610bd9578560036000838152602001908152602001600020600201541415610bc657600360008281526020019081526020016000206040518060e0016040529081600082015481526020016001820180546108a290611588565b80601f01602080910402602001604051908101604052809291908181526020018280546108ce90611588565b801561091b5780601f106108f05761010080835404028352916020019161091b565b820191906000526020600020905b8154815290600101906020018083116108fe57829003601f168201915b505050505081526020016002820154815260200160038201805480602002602001604051908101604052809291908181526020016000905b82821015610b4f57838290600052602060002090600502016040518060a00160405290816000820154815260200160018201805461099090611588565b80601f01602080910402602001604051908101604052809291908181526020018280546109bc90611588565b8015610a095780601f106109de57610100808354040283529160200191610a09565b820191906000526020600020905b8154815290600101906020018083116109ec57829003601f168201915b50505050508152602001600282018054610a2290611588565b80601f0160208091040260200160405190810160405280929190818152602001828054610a4e90611588565b8015610a9b5780601f10610a7057610100808354040283529160200191610a9b565b820191906000526020600020905b815481529060010190602001808311610a7e57829003601f168201915b5050505050815260200160038201548152602001600482018054610abe90611588565b80601f0160208091040260200160405190810160405280929190818152602001828054610aea90611588565b8015610b375780601f10610b0c57610100808354040283529160200191610b37565b820191906000526020600020905b815481529060010190602001808311610b1a57829003601f168201915b50505050508152505081526020019060010190610953565b5050505081526020016004820154815260200160058201548152602001600682015481525050838380610b81906115ba565b945081518110610bba577f4e487b7100000000000000000000000000000000000000000000000000000000600052603260045260246000fd5b60200260200101819052505b8080610bd1906115ba565b915050610842565b50819350505050919050565b828054610bf190611588565b90600052602060002090601f016020900481019282610c135760008555610c5a565b82601f10610c2c57805160ff1916838001178555610c5a565b82800160010185558215610c5a579182015b82811115610c59578251825591602001919060010190610c3e565b5b509050610c679190610cc9565b5090565b60405180606001604052806060815260200160608152602001600081525090565b6040518060e00160405280600081526020016060815260200160008152602001606081526020016000815260200160008152602001600081525090565b5b80821115610ce2576000816000905550600101610cca565b5090565b6000610cf9610cf4846113bc565b61138b565b9050808382526020820190508260005b85811015610d395781358501610d1f8882610dd5565b845260208401935060208301925050600181019050610d09565b5050509392505050565b6000610d56610d51846113e8565b61138b565b905082815260208101848484011115610d6e57600080fd5b610d79848285611546565b509392505050565b600082601f830112610d9257600080fd5b8135610da2848260208601610ce6565b91505092915050565b600082601f830112610dbc57600080fd5b8135610dcc848260208601610d43565b91505092915050565b600060a08284031215610de757600080fd5b610df160a061138b565b90506000610e0184828501610ea5565b600083015250602082013567ffffffffffffffff811115610e2157600080fd5b610e2d84828501610dab565b602083015250604082013567ffffffffffffffff811115610e4d57600080fd5b610e5984828501610dab565b6040830152506060610e6d84828501610ea5565b606083015250608082013567ffffffffffffffff811115610e8d57600080fd5b610e9984828501610dab565b60808301525092915050565b600081359050610eb4816116a1565b92915050565b600080600080600060a08688031215610ed257600080fd5b600086013567ffffffffffffffff811115610eec57600080fd5b610ef888828901610dab565b9550506020610f0988828901610ea5565b945050604086013567ffffffffffffffff811115610f2657600080fd5b610f3288828901610d81565b9350506060610f4388828901610ea5565b9250506080610f5488828901610ea5565b9150509295509295909350565b600060208284031215610f7357600080fd5b6000610f8184828501610ea5565b91505092915050565b600080600060608486031215610f9f57600080fd5b6000610fad86828701610ea5565b935050602084013567ffffffffffffffff811115610fca57600080fd5b610fd686828701610dab565b925050604084013567ffffffffffffffff811115610ff357600080fd5b610fff86828701610dab565b9150509250925092565b6000806040838503121561101c57600080fd5b600061102a85828601610ea5565b925050602061103b85828601610ea5565b9150509250929050565b6000611051838361119f565b905092915050565b60006110658383611223565b905092915050565b600061107882611438565b6110828185611473565b93508360208202850161109485611418565b8060005b858110156110d057848403895281516110b18582611045565b94506110bc83611459565b925060208a01995050600181019050611098565b50829750879550505050505092915050565b60006110ed82611443565b6110f78185611484565b93508360208202850161110985611428565b8060005b8581101561114557848403895281516111268582611059565b945061113183611466565b925060208a0199505060018101905061110d565b50829750879550505050505092915050565b61116081611530565b82525050565b60006111718261144e565b61117b8185611495565b935061118b818560208601611555565b61119481611690565b840191505092915050565b600060a0830160008301516111b7600086018261131d565b50602083015184820360208601526111cf8282611166565b915050604083015184820360408601526111e98282611166565b91505060608301516111fe606086018261131d565b50608083015184820360808601526112168282611166565b9150508091505092915050565b600060e08301600083015161123b600086018261131d565b50602083015184820360208601526112538282611166565b9150506040830151611268604086018261131d565b5060608301518482036060860152611280828261106d565b9150506080830151611295608086018261131d565b5060a08301516112a860a086018261131d565b5060c08301516112bb60c086018261131d565b508091505092915050565b600060608301600083015184820360008601526112e38282611166565b915050602083015184820360208601526112fd8282611166565b9150506040830151611312604086018261131d565b508091505092915050565b6113268161153c565b82525050565b6000602082019050818103600083015261134681846110e2565b905092915050565b60006020820190506113636000830184611157565b92915050565b6000602082019050818103600083015261138381846112c6565b905092915050565b6000604051905081810181811067ffffffffffffffff821117156113b2576113b1611661565b5b8060405250919050565b600067ffffffffffffffff8211156113d7576113d6611661565b5b602082029050602081019050919050565b600067ffffffffffffffff82111561140357611402611661565b5b601f19601f8301169050602081019050919050565b6000819050602082019050919050565b6000819050602082019050919050565b600081519050919050565b600081519050919050565b600081519050919050565b6000602082019050919050565b6000602082019050919050565b600082825260208201905092915050565b600082825260208201905092915050565b600082825260208201905092915050565b60006114b18261153c565b91506114bc8361153c565b9250827fffffffffffffffffffffffffffffffffffffffffffffffffffffffffffffffff038211156114f1576114f0611603565b5b828201905092915050565b60006115078261153c565b91506115128361153c565b92508282101561152557611524611603565b5b828203905092915050565b60008115159050919050565b6000819050919050565b82818337600083830152505050565b60005b83811015611573578082015181840152602081019050611558565b83811115611582576000848401525b50505050565b600060028204905060018216806115a057607f821691505b602082108114156115b4576115b3611632565b5b50919050565b60006115c58261153c565b91507fffffffffffffffffffffffffffffffffffffffffffffffffffffffffffffffff8214156115f8576115f7611603565b5b600182019050919050565b7f4e487b7100000000000000000000000000000000000000000000000000000000600052601160045260246000fd5b7f4e487b7100000000000000000000000000000000000000000000000000000000600052602260045260246000fd5b7f4e487b7100000000000000000000000000000000000000000000000000000000600052604160045260246000fd5b6000601f19601f8301169050919050565b6116aa8161153c565b81146116b557600080fd5b5056fea2646970667358221220e1715a2b3f2d34e1918c28efddcc5729bbfbf0db3bd84a4b3509be1f5e73790364736f6c63430008000033",
  "immutableReferences": {},
  "source": "pragma solidity ^0.8.0;\r\n\r\ncontract Voting {\r\n    //users details\r\n    struct user {\r\n        string name;\r\n        string email;\r\n        uint256 index;\r\n    }\r\n\r\n    uint256[] private userIndex;\r\n\r\n    mapping(uint256 => user) userList;\r\n\r\n    function isUser(uint256 phoneNo) public returns (bool) {\r\n        if (userIndex.length == 0) return false;\r\n        return (userIndex[userList[phoneNo].index] == phoneNo);\r\n    }\r\n\r\n    function addUser(\r\n        uint256 phoneNo,\r\n        string memory name,\r\n        string memory email\r\n    ) public returns (bool exisiting) {\r\n        if (isUser(phoneNo) == true) return false;\r\n        userList[phoneNo] = user(name, email, 0);\r\n        userIndex.push(phoneNo);\r\n        userList[phoneNo].index = userIndex.length - 1;\r\n        return true;\r\n    }\r\n\r\n    function getUser(uint256 phoneNo) public view returns (user memory) {\r\n        return userList[phoneNo];\r\n    }\r\n\r\n    // Candidate\r\n    struct candidate {\r\n        uint256 candidateId;\r\n        string name;\r\n        string desc;\r\n        uint256 voteCount;\r\n        string picture;\r\n    }\r\n\r\n    // Polls\r\n    struct poll {\r\n        uint256 id;\r\n        string name;\r\n        uint256 creatorUserId;\r\n        candidate[] candidateList;\r\n        uint256 startTime;\r\n        uint256 endTime;\r\n        uint256 winner;\r\n    }\r\n\r\n    // To generate a poll id\r\n    uint256 numberOfPolls;\r\n\r\n    constructor() public {\r\n        numberOfPolls = 0;\r\n    }\r\n\r\n    mapping(uint256 => poll) pollList;\r\n\r\n    // Create poll function\r\n    function addPoll(\r\n        string memory name,\r\n        uint256 phoneNo,\r\n        candidate[] memory candidateList,\r\n        uint256 startTime,\r\n        uint256 endTime\r\n    ) public returns (bool success) {\r\n        pollList[numberOfPolls].id = numberOfPolls;\r\n        pollList[numberOfPolls].name = name;\r\n        pollList[numberOfPolls].creatorUserId = phoneNo;\r\n        for (uint256 i = 0; i < candidateList.length; i++)\r\n            pollList[numberOfPolls].candidateList.push(candidateList[i]);\r\n\r\n        pollList[numberOfPolls].startTime = startTime;\r\n        pollList[numberOfPolls].endTime = endTime;\r\n\r\n        numberOfPolls += 1;\r\n        return true;\r\n    }\r\n\r\n    // Get polls created by this user\r\n    function getPolls(uint256 phoneNo) public returns (poll[] memory) {\r\n        uint256 count = 0;\r\n        for (uint256 x = 0; x < numberOfPolls; x++) {\r\n            if (pollList[x].creatorUserId == phoneNo) count++;\r\n        }\r\n\r\n        poll[] memory userPollList = new poll[](count);\r\n        uint256 temp = 0;\r\n        for (uint256 x = 0; x < numberOfPolls; x++) {\r\n            if (pollList[x].creatorUserId == phoneNo)\r\n                userPollList[temp++] = pollList[x];\r\n        }\r\n\r\n        return userPollList;\r\n    }\r\n\r\n    //Joined polls\r\n    struct pollVoted {\r\n        uint256 pollId;\r\n        bool voted;\r\n    }\r\n\r\n    mapping(uint256 => pollVoted[]) joinedPolls;\r\n\r\n    function joinPoll(uint256 phoneNo, uint256 pollId) public {\r\n        joinedPolls[phoneNo].push(pollVoted(pollId, false));\r\n    }\r\n\r\n    // function joinedPollsList(uint, phoneNo) public returns (){\r\n\r\n    // }\r\n\r\n    function vote(uint256 pollId, uint256 candidateId) public returns (bool) {\r\n        pollList[pollId].candidateList[candidateId].voteCount += 1;\r\n        return true;\r\n    }\r\n}\r\n",
  "sourcePath": "C:\\Arjun\\vote-io\\backend-api\\contracts\\Voting.sol",
  "compiler": {
    "name": "solc",
    "version": "0.8.0+commit.c7dfd78e.Emscripten.clang"
  },
  "schemaVersion": "3.4.4",
  "updatedAt": "2022-06-14T11:32:25.387Z",
  "networkType": "ethereum",
  "devdoc": {
    "kind": "dev",
    "methods": {},
    "version": 1
  },
  "userdoc": {
    "kind": "user",
    "methods": {},
    "version": 1
  }
}