{
  "contractName": "Voting",
  "abi": [
    {
      "inputs": [
        {
          "internalType": "string[]",
          "name": "c_name",
          "type": "string[]"
        }
      ],
      "stateMutability": "nonpayable",
      "type": "constructor"
    },
    {
      "inputs": [
        {
          "internalType": "uint256",
          "name": "",
          "type": "uint256"
        }
      ],
      "name": "candidate_list",
      "outputs": [
        {
          "internalType": "string",
          "name": "name",
          "type": "string"
        },
        {
          "internalType": "uint256",
          "name": "votes",
          "type": "uint256"
        }
      ],
      "stateMutability": "view",
      "type": "function",
      "constant": true
    },
    {
      "inputs": [],
      "name": "getCandidates",
      "outputs": [
        {
          "components": [
            {
              "internalType": "string",
              "name": "name",
              "type": "string"
            },
            {
              "internalType": "uint256",
              "name": "votes",
              "type": "uint256"
            }
          ],
          "internalType": "struct Voting.candidate[]",
          "name": "",
          "type": "tuple[]"
        }
      ],
      "stateMutability": "view",
      "type": "function",
      "constant": true
    },
    {
      "inputs": [
        {
          "internalType": "address",
          "name": "v_address",
          "type": "address"
        }
      ],
      "name": "add_voter",
      "outputs": [],
      "stateMutability": "nonpayable",
      "type": "function"
    },
    {
      "inputs": [
        {
          "internalType": "address",
          "name": "v_address",
          "type": "address"
        }
      ],
      "name": "verify_voter",
      "outputs": [],
      "stateMutability": "nonpayable",
      "type": "function"
    },
    {
      "inputs": [
        {
          "internalType": "uint256",
          "name": "c_id",
          "type": "uint256"
        }
      ],
      "name": "vote",
      "outputs": [],
      "stateMutability": "nonpayable",
      "type": "function"
    },
    {
      "inputs": [],
      "name": "get_results",
      "outputs": [
        {
          "internalType": "string",
          "name": "winner",
          "type": "string"
        }
      ],
      "stateMutability": "view",
      "type": "function",
      "constant": true
    }
  ],
  "bytecode": "0x60806040523480156200001157600080fd5b5060405162001583380380620015838339818101604052810190620000379190620002e7565b60005b815181101562000111576200004e62000119565b82828151811062000088577f4e487b7100000000000000000000000000000000000000000000000000000000600052603260045260246000fd5b60200260200101518160000181905250600081602001818152505060008190806001815401808255809150506001900390600052602060002090600202016000909190919091506000820151816000019080519060200190620000ed92919062000133565b50602082015181600101555050508080620001089062000438565b9150506200003a565b505062000513565b604051806040016040528060608152602001600081525090565b828054620001419062000402565b90600052602060002090601f016020900481019282620001655760008555620001b1565b82601f106200018057805160ff1916838001178555620001b1565b82800160010185558215620001b1579182015b82811115620001b057825182559160200191906001019062000193565b5b509050620001c09190620001c4565b5090565b5b80821115620001df576000816000905550600101620001c5565b5090565b6000620001fa620001f48462000360565b6200032c565b9050808382526020820190508260005b858110156200023e5781518501620002238882620002ba565b8452602084019350602083019250506001810190506200020a565b5050509392505050565b60006200025f62000259846200038f565b6200032c565b9050828152602081018484840111156200027857600080fd5b62000285848285620003cc565b509392505050565b600082601f8301126200029f57600080fd5b8151620002b1848260208601620001e3565b91505092915050565b600082601f830112620002cc57600080fd5b8151620002de84826020860162000248565b91505092915050565b600060208284031215620002fa57600080fd5b600082015167ffffffffffffffff8111156200031557600080fd5b62000323848285016200028d565b91505092915050565b6000604051905081810181811067ffffffffffffffff82111715620003565762000355620004e4565b5b8060405250919050565b600067ffffffffffffffff8211156200037e576200037d620004e4565b5b602082029050602081019050919050565b600067ffffffffffffffff821115620003ad57620003ac620004e4565b5b601f19601f8301169050602081019050919050565b6000819050919050565b60005b83811015620003ec578082015181840152602081019050620003cf565b83811115620003fc576000848401525b50505050565b600060028204905060018216806200041b57607f821691505b60208210811415620004325762000431620004b5565b5b50919050565b60006200044582620003c2565b91507fffffffffffffffffffffffffffffffffffffffffffffffffffffffffffffffff8214156200047b576200047a62000486565b5b600182019050919050565b7f4e487b7100000000000000000000000000000000000000000000000000000000600052601160045260246000fd5b7f4e487b7100000000000000000000000000000000000000000000000000000000600052602260045260246000fd5b7f4e487b7100000000000000000000000000000000000000000000000000000000600052604160045260246000fd5b61106080620005236000396000f3fe608060405234801561001057600080fd5b50600436106100625760003560e01c80630121b93f1461006757806306a49fce146100835780631949685a146100a157806343c89d02146100bd57806382d65bbb146100ee578063daa53fa81461010a575b600080fd5b610081600480360381019061007c9190610a14565b610128565b005b61008b610307565b6040516100989190610cd3565b60405180910390f35b6100bb60048036038101906100b691906109eb565b610402565b005b6100d760048036038101906100d29190610a14565b610574565b6040516100e5929190610d17565b60405180910390f35b610108600480360381019061010391906109eb565b610630565b005b61011261083c565b60405161011f9190610cf5565b60405180910390f35b600160003373ffffffffffffffffffffffffffffffffffffffff1673ffffffffffffffffffffffffffffffffffffffff16815260200190815260200160002060000160019054906101000a900460ff166101b7576040517f08c379a00000000000000000000000000000000000000000000000000000000081526004016101ae90610d87565b60405180910390fd5b600160003373ffffffffffffffffffffffffffffffffffffffff1673ffffffffffffffffffffffffffffffffffffffff16815260200190815260200160002060000160009054906101000a900460ff1615610247576040517f08c379a000000000000000000000000000000000000000000000000000000000815260040161023e90610d67565b60405180910390fd5b60018060003373ffffffffffffffffffffffffffffffffffffffff1673ffffffffffffffffffffffffffffffffffffffff16815260200190815260200160002060000160006101000a81548160ff0219169083151502179055506001600082815481106102dd577f4e487b7100000000000000000000000000000000000000000000000000000000600052603260045260246000fd5b906000526020600020906002020160010160008282546102fd9190610e4d565b9250508190555050565b60606000805480602002602001604051908101604052809291908181526020016000905b828210156103f9578382906000526020600020906002020160405180604001604052908160008201805461035e90610f12565b80601f016020809104026020016040519081016040528092919081815260200182805461038a90610f12565b80156103d75780601f106103ac576101008083540402835291602001916103d7565b820191906000526020600020905b8154815290600101906020018083116103ba57829003601f168201915b505050505081526020016001820154815250508152602001906001019061032b565b50505050905090565b600160008273ffffffffffffffffffffffffffffffffffffffff1673ffffffffffffffffffffffffffffffffffffffff16815260200190815260200160002060000160029054906101000a900460ff1615610492576040517f08c379a000000000000000000000000000000000000000000000000000000000815260040161048990610dc7565b60405180910390fd5b61049a61099a565b60008160000190151590811515815250506000816020019015159081151581525050600181604001901515908115158152505080600160008473ffffffffffffffffffffffffffffffffffffffff1673ffffffffffffffffffffffffffffffffffffffff16815260200190815260200160002060008201518160000160006101000a81548160ff02191690831515021790555060208201518160000160016101000a81548160ff02191690831515021790555060408201518160000160026101000a81548160ff0219169083151502179055509050505050565b6000818154811061058457600080fd5b90600052602060002090600202016000915090508060000180546105a790610f12565b80601f01602080910402602001604051908101604052809291908181526020018280546105d390610f12565b80156106205780601f106105f557610100808354040283529160200191610620565b820191906000526020600020905b81548152906001019060200180831161060357829003601f168201915b5050505050908060010154905082565b600160008273ffffffffffffffffffffffffffffffffffffffff1673ffffffffffffffffffffffffffffffffffffffff16815260200190815260200160002060000160029054906101000a900460ff166106bf576040517f08c379a00000000000000000000000000000000000000000000000000000000081526004016106b690610d47565b60405180910390fd5b600160008273ffffffffffffffffffffffffffffffffffffffff1673ffffffffffffffffffffffffffffffffffffffff16815260200190815260200160002060000160019054906101000a900460ff161561074f576040517f08c379a000000000000000000000000000000000000000000000000000000000815260040161074690610da7565b60405180910390fd5b600160008273ffffffffffffffffffffffffffffffffffffffff1673ffffffffffffffffffffffffffffffffffffffff16815260200190815260200160002060000160009054906101000a900460ff16156107df576040517f08c379a00000000000000000000000000000000000000000000000000000000081526004016107d690610d67565b60405180910390fd5b60018060008373ffffffffffffffffffffffffffffffffffffffff1673ffffffffffffffffffffffffffffffffffffffff16815260200190815260200160002060000160016101000a81548160ff02191690831515021790555050565b606060008080600090505b6000805490508110156108be57826000828154811061088f577f4e487b7100000000000000000000000000000000000000000000000000000000600052603260045260246000fd5b90600052602060002090600202016001015411156108ab578091505b80806108b690610f44565b915050610847565b50600081815481106108f9577f4e487b7100000000000000000000000000000000000000000000000000000000600052603260045260246000fd5b9060005260206000209060020201600001805461091590610f12565b80601f016020809104026020016040519081016040528092919081815260200182805461094190610f12565b801561098e5780601f106109635761010080835404028352916020019161098e565b820191906000526020600020905b81548152906001019060200180831161097157829003601f168201915b50505050509250505090565b60405180606001604052806000151581526020016000151581526020016000151581525090565b6000813590506109d081610ffc565b92915050565b6000813590506109e581611013565b92915050565b6000602082840312156109fd57600080fd5b6000610a0b848285016109c1565b91505092915050565b600060208284031215610a2657600080fd5b6000610a34848285016109d6565b91505092915050565b6000610a498383610c78565b905092915050565b6000610a5c82610df7565b610a668185610e1a565b935083602082028501610a7885610de7565b8060005b85811015610ab45784840389528151610a958582610a3d565b9450610aa083610e0d565b925060208a01995050600181019050610a7c565b50829750879550505050505092915050565b6000610ad182610e02565b610adb8185610e2b565b9350610aeb818560208601610edf565b610af481610feb565b840191505092915050565b6000610b0a82610e02565b610b148185610e3c565b9350610b24818560208601610edf565b610b2d81610feb565b840191505092915050565b6000610b45601383610e3c565b91507f766f74657220646f73206e6f74206578697374000000000000000000000000006000830152602082019050919050565b6000610b85600d83610e3c565b91507f616c726561647920766f746564000000000000000000000000000000000000006000830152602082019050919050565b6000610bc5600c83610e3c565b91507f6e6f7420766572696669656400000000000000000000000000000000000000006000830152602082019050919050565b6000610c05601083610e3c565b91507f616c7265616479207665726966696564000000000000000000000000000000006000830152602082019050919050565b6000610c45601483610e3c565b91507f766f74657220616c7265616479206578697374730000000000000000000000006000830152602082019050919050565b60006040830160008301518482036000860152610c958282610ac6565b9150506020830151610caa6020860182610cb5565b508091505092915050565b610cbe81610ed5565b82525050565b610ccd81610ed5565b82525050565b60006020820190508181036000830152610ced8184610a51565b905092915050565b60006020820190508181036000830152610d0f8184610aff565b905092915050565b60006040820190508181036000830152610d318185610aff565b9050610d406020830184610cc4565b9392505050565b60006020820190508181036000830152610d6081610b38565b9050919050565b60006020820190508181036000830152610d8081610b78565b9050919050565b60006020820190508181036000830152610da081610bb8565b9050919050565b60006020820190508181036000830152610dc081610bf8565b9050919050565b60006020820190508181036000830152610de081610c38565b9050919050565b6000819050602082019050919050565b600081519050919050565b600081519050919050565b6000602082019050919050565b600082825260208201905092915050565b600082825260208201905092915050565b600082825260208201905092915050565b6000610e5882610ed5565b9150610e6383610ed5565b9250827fffffffffffffffffffffffffffffffffffffffffffffffffffffffffffffffff03821115610e9857610e97610f8d565b5b828201905092915050565b6000610eae82610eb5565b9050919050565b600073ffffffffffffffffffffffffffffffffffffffff82169050919050565b6000819050919050565b60005b83811015610efd578082015181840152602081019050610ee2565b83811115610f0c576000848401525b50505050565b60006002820490506001821680610f2a57607f821691505b60208210811415610f3e57610f3d610fbc565b5b50919050565b6000610f4f82610ed5565b91507fffffffffffffffffffffffffffffffffffffffffffffffffffffffffffffffff821415610f8257610f81610f8d565b5b600182019050919050565b7f4e487b7100000000000000000000000000000000000000000000000000000000600052601160045260246000fd5b7f4e487b7100000000000000000000000000000000000000000000000000000000600052602260045260246000fd5b6000601f19601f8301169050919050565b61100581610ea3565b811461101057600080fd5b50565b61101c81610ed5565b811461102757600080fd5b5056fea264697066735822122015944dfb39b9fc0776e7e4d914003917b6bfbe7d6c9c3ddce9ef8b8b11f9fbc664736f6c63430008000033",
  "immutableReferences": {},
  "source": "pragma solidity ^0.8.0;\n\ncontract Voting {\n    // a candidate structure that stores basic data about a\n    // candidate that stands for the election\n\n    struct candidate {\n        string name;\n        uint256 votes;\n    }\n\n    candidate[] public candidate_list;\n\n    // a voter structure that will store the details about the voter\n    // includes: voted bool, verified bool,\n    // IMP: do we store who the person's voted ror ?\n    struct voter {\n        bool voted;\n        bool verified;\n        bool exists;\n    }\n\n    mapping(address => voter) voter_list;\n\n    // A constructor that init. the candidates\n    constructor(string[] memory c_name) {\n        for (uint256 i = 0; i < c_name.length; i++) {\n            candidate memory temp;\n            temp.name = c_name[i];\n            temp.votes = 0;\n            candidate_list.push(temp);\n        }\n    }\n\n    // Bunch of useful functions\n\n    // function that gets the candidates\n    function getCandidates() public view returns (candidate[] memory) {\n        return candidate_list;\n    }\n\n    // function that adds voters to the voter_list\n    function add_voter(address v_address) public {\n        require(!voter_list[v_address].exists, \"voter already exists\");\n        voter memory temp;\n        temp.voted = false;\n        temp.verified = false;\n        temp.exists = true;\n        voter_list[v_address] = temp;\n    }\n\n    // function that verifies the voter\n    function verify_voter(address v_address) public {\n        require(voter_list[v_address].exists, \"voter dos not exist\");\n        require(!voter_list[v_address].verified, \"already verified\");\n        require(!voter_list[v_address].voted, \"already voted\");\n        voter_list[v_address].verified = true;\n    }\n\n    // function to vote\n    function vote(uint256 c_id) public {\n        require(voter_list[msg.sender].verified, \"not verified\");\n        require(!voter_list[msg.sender].voted, \"already voted\");\n        voter_list[msg.sender].voted = true;\n        candidate_list[c_id].votes += 1;\n    }\n\n    // function to get the results\n    function get_results() public view returns (string memory winner) {\n        uint256 maxVotes = 0;\n        uint256 index;\n        for (uint256 i = 0; i < candidate_list.length; i++) {\n            if (candidate_list[i].votes > maxVotes) {\n                index = i;\n            }\n        }\n        winner = candidate_list[index].name;\n    }\n}\n",
  "sourcePath": "/Users/tarun/Documents/GitHub/vote-io/backend/backend-api/contracts/Voting.sol",
  "compiler": {
    "name": "solc",
    "version": "0.8.0+commit.c7dfd78e.Emscripten.clang"
  },
  "schemaVersion": "3.4.7",
  "updatedAt": "2022-06-02T16:58:47.857Z",
  "networkType": "ethereum",
  "devdoc": {
    "kind": "dev",
    "methods": {},
    "version": 1
  },
  "userdoc": {
    "kind": "user",
    "methods": {},
    "version": 1
  }
}